:0400000065EF3FF079
:107ECA000E6A0D6A0C6A000173EF3FF0036E02C07E
:107EDA000EF001C00DF003C00CF01200000E956EFA
:107EEA00000E836EA10E016EA80E026E380E6BECA8
:107EFA003FF0A9EC3FF086EC3FF077EF3FF000EF60
:107F0A0000F0000E016E000E026E000E036E00F00D
:107F1A00032A150E036494EF3FF096EF3FF08CEFBF
:107F2A003FF0022A0228D8A49DEF3FF09FEF3FF0CE
:107F3A008AEF3FF0012A0128D8A4A6EF3FF0A8EF64
:107F4A003FF088EF3FF01200000E056E000E046E3F
:107F5A00000E066E0C0E0424D96E000E0520DA6E91
:107F6A00DF50016E06C002F0010E036E022AC0EF56
:107F7A003FF0D8900336022EBEEF3FF003500114B3
:107F8A000009D8B4CBEF3FF0CDEF3FF0DCEF3FF084
:107F9A00010E836E00F000F000F000F000F000F037
:107FAA00000E836E00F000F000F0E9EF3FF0010EE2
:107FBA00836E00F000F000F0000E836E00F000F017
:107FCA0000F000F000F000F0062A070E0664F0EF59
:107FDA003FF0F2EF3FF0AFEF3FF0044A052A0550B9
:107FEA0009E1030E045CD8A0FDEF3FF0FFEF3FF07C
:067FFA00ADEF3FF01200A4
:020000040020DA
:08000000FFFFFFFFFFFFFFFF00
:020000040030CA
:0E000000010E181FFF8381FF0FC00FE00F409D
:00000001FF
